{
  "contractName": "Musician",
  "abi": [
    {
      "inputs": [],
      "payable": false,
      "stateMutability": "nonpayable",
      "type": "constructor",
      "signature": "constructor"
    },
    {
      "constant": false,
      "inputs": [
        {
          "name": "name",
          "type": "string"
        },
        {
          "name": "singer",
          "type": "string"
        },
        {
          "name": "price",
          "type": "uint256"
        }
      ],
      "name": "createMusic",
      "outputs": [
        {
          "name": "",
          "type": "bool"
        }
      ],
      "payable": false,
      "stateMutability": "nonpayable",
      "type": "function",
      "signature": "0xf0f0211a"
    },
    {
      "constant": true,
      "inputs": [
        {
          "name": "name",
          "type": "string"
        }
      ],
      "name": "queryMusicPrice",
      "outputs": [
        {
          "name": "",
          "type": "string"
        },
        {
          "name": "",
          "type": "uint256"
        }
      ],
      "payable": false,
      "stateMutability": "view",
      "type": "function",
      "signature": "0x8e36d586"
    },
    {
      "constant": false,
      "inputs": [
        {
          "name": "song",
          "type": "string"
        }
      ],
      "name": "buyMusic",
      "outputs": [
        {
          "name": "",
          "type": "string"
        },
        {
          "name": "",
          "type": "uint256"
        }
      ],
      "payable": true,
      "stateMutability": "payable",
      "type": "function",
      "signature": "0x9f1b5f62"
    },
    {
      "constant": false,
      "inputs": [],
      "name": "withdraw",
      "outputs": [],
      "payable": false,
      "stateMutability": "nonpayable",
      "type": "function",
      "signature": "0x3ccfd60b"
    },
    {
      "constant": true,
      "inputs": [],
      "name": "getBalance",
      "outputs": [
        {
          "name": "",
          "type": "uint256"
        }
      ],
      "payable": false,
      "stateMutability": "view",
      "type": "function",
      "signature": "0x12065fe0"
    },
    {
      "constant": false,
      "inputs": [
        {
          "name": "name",
          "type": "string"
        }
      ],
      "name": "isBounght",
      "outputs": [
        {
          "name": "",
          "type": "bool"
        }
      ],
      "payable": true,
      "stateMutability": "payable",
      "type": "function",
      "signature": "0xc6bf9af9"
    },
    {
      "constant": false,
      "inputs": [],
      "name": "getMusicCount",
      "outputs": [
        {
          "name": "",
          "type": "uint256"
        }
      ],
      "payable": true,
      "stateMutability": "payable",
      "type": "function",
      "signature": "0xd888f3f4"
    },
    {
      "constant": false,
      "inputs": [],
      "name": "getMusicList",
      "outputs": [
        {
          "name": "",
          "type": "string[]"
        }
      ],
      "payable": true,
      "stateMutability": "payable",
      "type": "function",
      "signature": "0xffda2835"
    },
    {
      "constant": false,
      "inputs": [],
      "name": "getMyMusic",
      "outputs": [
        {
          "name": "",
          "type": "string[]"
        }
      ],
      "payable": true,
      "stateMutability": "payable",
      "type": "function",
      "signature": "0xc6ab1131"
    }
  ],
  "bytecode": "0x608060405234801561001057600080fd5b50336000806101000a81548173ffffffffffffffffffffffffffffffffffffffff021916908373ffffffffffffffffffffffffffffffffffffffff1602179055506000600181905550611c00806100686000396000f300608060405260043610610099576000357c0100000000000000000000000000000000000000000000000000000000900463ffffffff16806312065fe01461009e5780633ccfd60b146100c95780638e36d586146100e05780639f1b5f621461011e578063c6ab11311461014f578063c6bf9af91461016d578063d888f3f41461019d578063f0f0211a146101bb578063ffda2835146101f8575b600080fd5b3480156100aa57600080fd5b506100b3610216565b6040516100c09190611aa4565b60405180910390f35b3480156100d557600080fd5b506100de6102c6565b005b3480156100ec57600080fd5b50610107600480360361010291908101906116d7565b6103d8565b6040516101159291906119f4565b60405180910390f35b610138600480360361013391908101906116d7565b6105db565b6040516101469291906119f4565b60405180910390f35b610157610ad0565b60405161016491906119b7565b60405180910390f35b610187600480360361018291908101906116d7565b610cbf565b60405161019491906119d9565b60405180910390f35b6101a5610ed5565b6040516101b29190611aa4565b60405180910390f35b3480156101c757600080fd5b506101e260048036036101dd9190810190611718565b610f1f565b6040516101ef91906119d9565b60405180910390f35b61020061126f565b60405161020d91906119b7565b60405180910390f35b60008060009054906101000a900473ffffffffffffffffffffffffffffffffffffffff1673ffffffffffffffffffffffffffffffffffffffff163373ffffffffffffffffffffffffffffffffffffffff161415156102a9576040517f08c379a00000000000000000000000000000000000000000000000000000000081526004016102a090611a84565b60405180910390fd5b3073ffffffffffffffffffffffffffffffffffffffff1631905090565b6000809054906101000a900473ffffffffffffffffffffffffffffffffffffffff1673ffffffffffffffffffffffffffffffffffffffff163373ffffffffffffffffffffffffffffffffffffffff16141515610357576040517f08c379a000000000000000000000000000000000000000000000000000000000815260040161034e90611a84565b60405180910390fd5b6000809054906101000a900473ffffffffffffffffffffffffffffffffffffffff1673ffffffffffffffffffffffffffffffffffffffff166108fc3073ffffffffffffffffffffffffffffffffffffffff16319081150290604051600060405180830381858888f193505050501580156103d5573d6000803e3d6000fd5b50565b6060600080600090505b60038054905081101561059457835160038281548110151561040057fe5b9060005260206000209060040201600001805460018160011615610100020316600290049050141561058757836040518082805190602001908083835b602083101515610462578051825260208201915060208101905060208303925061043d565b6001836020036101000a0380198251168184511680821785525050505050509050019150506040518091039020600019166003828154811015156104a257fe5b9060005260206000209060040201600001604051808280546001816001161561010002031660029004801561050e5780601f106104ec57610100808354040283529182019161050e565b820191906000526020600020905b8154815290600101906020018083116104fa575b505091505060405180910390206000191614156105865760038181548110151561053457fe5b9060005260206000209060040201600201546040805190810160405280600c81526020017fe4bbb7e6a0bce4b8baefbc9a000000000000000000000000000000000000000081525090925092506105d5565b5b80806001019150506103e2565b60006040805190810160405280601281526020017fe6ada4e6ad8ce69bb2e4b88de5ad98e59ca8000000000000000000000000000081525090809050925092505b50915091565b60606000806000809054906101000a900473ffffffffffffffffffffffffffffffffffffffff1673ffffffffffffffffffffffffffffffffffffffff163373ffffffffffffffffffffffffffffffffffffffff1614151515610672576040517f08c379a000000000000000000000000000000000000000000000000000000000815260040161066990611a64565b60405180910390fd5b61067b84610cbf565b1515156106bd576040517f08c379a00000000000000000000000000000000000000000000000000000000081526004016106b490611a44565b60405180910390fd5b600090505b600380549050811015610a1b5783516003828154811015156106e057fe5b90600052602060002090600402016000018054600181600116156101000203166002900490501415610a0e57836040518082805190602001908083835b602083101515610742578051825260208201915060208101905060208303925061071d565b6001836020036101000a03801982511681845116808217855250505050505090500191505060405180910390206000191660038281548110151561078257fe5b906000526020600020906004020160000160405180828054600181600116156101000203166002900480156107ee5780601f106107cc5761010080835404028352918201916107ee565b820191906000526020600020905b8154815290600101906020018083116107da575b50509150506040518091039020600019161415610a0d5760038181548110151561081457fe5b906000526020600020906004020160020154341015151561086a576040517f08c379a000000000000000000000000000000000000000000000000000000000815260040161086190611a24565b60405180910390fd5b3373ffffffffffffffffffffffffffffffffffffffff166108fc60038381548110151561089357fe5b90600052602060002090600402016002015434039081150290604051600060405180830381858888f193505050501580156108d2573d6000803e3d6000fd5b506003818154811015156108e257fe5b906000526020600020906004020160030160008154809291906001019190505550600260003373ffffffffffffffffffffffffffffffffffffffff1673ffffffffffffffffffffffffffffffffffffffff16815260200190815260200160002060038281548110151561095157fe5b906000526020600020906004020160000190806001815401808255809150509060018203906000526020600020016000909192909190915090805460018160011615610100020316600290046109a89291906114c1565b50506003818154811015156109b957fe5b90600052602060002090600402016002015434036040805190810160405280601e81526020017fe8b4ade4b9b0e68890e58a9fefbc8ce8bf94e8bf98e4bd99e9a29defbc9a00008152509092509250610aca565b5b80806001019150506106c2565b3373ffffffffffffffffffffffffffffffffffffffff166108fc349081150290604051600060405180830381858888f19350505050158015610a61573d6000803e3d6000fd5b506000606060405190810160405280603081526020017fe8b4ade4b9b0e5a4b1e8b4a5efbc8ce6ada4e69bb2e4b88de5ad98e59ca8efbc81526020017f8ce8bf94e8bf98e4bd99e9a29defbc9a0000000000000000000000000000000081525090809050925092505b50915091565b60608060006001600260003373ffffffffffffffffffffffffffffffffffffffff1673ffffffffffffffffffffffffffffffffffffffff1681526020019081526020016000208054905001604051908082528060200260200182016040528015610b4e57816020015b6060815260200190600190039081610b395790505b509150600090505b600260003373ffffffffffffffffffffffffffffffffffffffff1673ffffffffffffffffffffffffffffffffffffffff16815260200190815260200160002080549050811015610cb757600260003373ffffffffffffffffffffffffffffffffffffffff1673ffffffffffffffffffffffffffffffffffffffff16815260200190815260200160002081815481101515610bec57fe5b906000526020600020018054600181600116156101000203166002900480601f016020809104026020016040519081016040528092919081815260200182805460018160011615610100020316600290048015610c8a5780601f10610c5f57610100808354040283529160200191610c8a565b820191906000526020600020905b815481529060010190602001808311610c6d57829003601f168201915b50505050508282815181101515610c9d57fe5b906020019060200201819052508080600101915050610b56565b819250505090565b600080600090505b600260003373ffffffffffffffffffffffffffffffffffffffff1673ffffffffffffffffffffffffffffffffffffffff16815260200190815260200160002080549050811015610eca578251600260003373ffffffffffffffffffffffffffffffffffffffff1673ffffffffffffffffffffffffffffffffffffffff16815260200190815260200160002082815481101515610d5f57fe5b906000526020600020018054600181600116156101000203166002900490501415610ebd57826040518082805190602001908083835b602083101515610dba5780518252602082019150602081019050602083039250610d95565b6001836020036101000a038019825116818451168082178552505050505050905001915050604051809103902060001916600260003373ffffffffffffffffffffffffffffffffffffffff1673ffffffffffffffffffffffffffffffffffffffff16815260200190815260200160002082815481101515610e3757fe5b906000526020600020016040518082805460018160011615610100020316600290048015610e9c5780601f10610e7a576101008083540402835291820191610e9c565b820191906000526020600020905b815481529060010190602001808311610e88575b50509150506040518091039020600019161415610ebc5760019150610ecf565b5b8080600101915050610cc7565b600091505b50919050565b6000600260003373ffffffffffffffffffffffffffffffffffffffff1673ffffffffffffffffffffffffffffffffffffffff16815260200190815260200160002080549050905090565b6000806000809054906101000a900473ffffffffffffffffffffffffffffffffffffffff1673ffffffffffffffffffffffffffffffffffffffff163373ffffffffffffffffffffffffffffffffffffffff16141515610fb3576040517f08c379a0000000000000000000000000000000000000000000000000000000008152600401610faa90611a84565b60405180910390fd5b600090505b600380549050811015611112578451600382815481101515610fd657fe5b9060005260206000209060040201600001805460018160011615610100020316600290049050141561110557846040518082805190602001908083835b6020831015156110385780518252602082019150602081019050602083039250611013565b6001836020036101000a03801982511681845116808217855250505050505090500191505060405180910390206000191660038281548110151561107857fe5b906000526020600020906004020160000160405180828054600181600116156101000203166002900480156110e45780601f106110c25761010080835404028352918201916110e4565b820191906000526020600020905b8154815290600101906020018083116110d0575b505091505060405180910390206000191614156111045760009150611267565b5b8080600101915050610fb8565b6003608060405190810160405280878152602001868152602001858152602001600081525090806001815401808255809150509060018203906000526020600020906004020160009091929091909150600082015181600001908051906020019061117e929190611548565b50602082015181600101908051906020019061119b929190611548565b506040820151816002015560608201518160030155505050600260008060009054906101000a900473ffffffffffffffffffffffffffffffffffffffff1673ffffffffffffffffffffffffffffffffffffffff1673ffffffffffffffffffffffffffffffffffffffff16815260200190815260200160002085908060018154018082558091505090600182039060005260206000200160009091929091909150908051906020019061124e9291906115c8565b5050600160008154809291906001019190505550600191505b509392505050565b60608060006001600260008060009054906101000a900473ffffffffffffffffffffffffffffffffffffffff1673ffffffffffffffffffffffffffffffffffffffff1673ffffffffffffffffffffffffffffffffffffffff168152602001908152602001600020805490500160405190808252806020026020018201604052801561130e57816020015b60608152602001906001900390816112f95790505b509150600090505b600260008060009054906101000a900473ffffffffffffffffffffffffffffffffffffffff1673ffffffffffffffffffffffffffffffffffffffff1673ffffffffffffffffffffffffffffffffffffffff168152602001908152602001600020805490508110156114b957600260008060009054906101000a900473ffffffffffffffffffffffffffffffffffffffff1673ffffffffffffffffffffffffffffffffffffffff1673ffffffffffffffffffffffffffffffffffffffff168152602001908152602001600020818154811015156113ee57fe5b906000526020600020018054600181600116156101000203166002900480601f01602080910402602001604051908101604052809291908181526020018280546001816001161561010002031660029004801561148c5780601f106114615761010080835404028352916020019161148c565b820191906000526020600020905b81548152906001019060200180831161146f57829003601f168201915b5050505050828281518110151561149f57fe5b906020019060200201819052508080600101915050611316565b819250505090565b828054600181600116156101000203166002900490600052602060002090601f016020900481019282601f106114fa5780548555611537565b8280016001018555821561153757600052602060002091601f016020900482015b8281111561153657825482559160010191906001019061151b565b5b5090506115449190611648565b5090565b828054600181600116156101000203166002900490600052602060002090601f016020900481019282601f1061158957805160ff19168380011785556115b7565b828001600101855582156115b7579182015b828111156115b657825182559160200191906001019061159b565b5b5090506115c49190611648565b5090565b828054600181600116156101000203166002900490600052602060002090601f016020900481019282601f1061160957805160ff1916838001178555611637565b82800160010185558215611637579182015b8281111561163657825182559160200191906001019061161b565b5b5090506116449190611648565b5090565b61166a91905b8082111561166657600081600090555060010161164e565b5090565b90565b600082601f830112151561168057600080fd5b813561169361168e82611aec565b611abf565b915080825260208301602083018583830111156116af57600080fd5b6116ba838284611b73565b50505092915050565b60006116cf8235611b69565b905092915050565b6000602082840312156116e957600080fd5b600082013567ffffffffffffffff81111561170357600080fd5b61170f8482850161166d565b91505092915050565b60008060006060848603121561172d57600080fd5b600084013567ffffffffffffffff81111561174757600080fd5b6117538682870161166d565b935050602084013567ffffffffffffffff81111561177057600080fd5b61177c8682870161166d565b925050604061178d868287016116c3565b9150509250925092565b60006117a282611b25565b808452602084019350836020820285016117bb85611b18565b60005b848110156117f45783830388526117d683835161184a565b92506117e182611b46565b91506020880197506001810190506117be565b508196508694505050505092915050565b61180e81611b53565b82525050565b600061181f82611b3b565b808452611833816020860160208601611b82565b61183c81611bb5565b602085010191505092915050565b600061185582611b30565b808452611869816020860160208601611b82565b61187281611bb5565b602085010191505092915050565b6000600c82527fe98791e9a29de4b88de8b6b300000000000000000000000000000000000000006020830152604082019050919050565b6000602a82527fe682a8e5b7b2e8b4ade4b9b0e8bf87e6ada4e69bb2efbc8ce697a0e99c80e98760208301527f8de5a48de6b688e8b4b9000000000000000000000000000000000000000000006040830152606082019050919050565b6000601b82527fe78988e69d83e68ba5e69c89e88085e697a0e99c80e8b4ade4b9b000000000006020830152604082019050919050565b6000602782527fe58faae69c89e78988e69d83e68ba5e69c89e88085e6898de58fafe6938de4bd60208301527f9ce6ada4e9a1b9000000000000000000000000000000000000000000000000006040830152606082019050919050565b6119b181611b5f565b82525050565b600060208201905081810360008301526119d18184611797565b905092915050565b60006020820190506119ee6000830184611805565b92915050565b60006040820190508181036000830152611a0e8185611814565b9050611a1d60208301846119a8565b9392505050565b60006020820190508181036000830152611a3d81611880565b9050919050565b60006020820190508181036000830152611a5d816118b7565b9050919050565b60006020820190508181036000830152611a7d81611914565b9050919050565b60006020820190508181036000830152611a9d8161194b565b9050919050565b6000602082019050611ab960008301846119a8565b92915050565b6000604051905081810181811067ffffffffffffffff82111715611ae257600080fd5b8060405250919050565b600067ffffffffffffffff821115611b0357600080fd5b601f19601f8301169050602081019050919050565b6000602082019050919050565b600081519050919050565b600081519050919050565b600081519050919050565b6000602082019050919050565b60008115159050919050565b6000819050919050565b6000819050919050565b82818337600083830152505050565b60005b83811015611ba0578082015181840152602081019050611b85565b83811115611baf576000848401525b50505050565b6000601f19601f83011690509190505600a265627a7a72305820197a664712b38fa0bf7f112f33b3c2f68c37786c472b5eb8df2d14ddd2d8d9476c6578706572696d656e74616cf50037",
  "source": "pragma solidity ^0.4.24;\r\npragma experimental ABIEncoderV2;\r\n\r\ncontract Musician{\r\n    address owner;\r\n    uint musicNumber;\r\n    \r\n    constructor() public{\r\n        owner = msg.sender;\r\n        musicNumber = 0;\r\n    }\r\n    \r\n    mapping (address=>string[]) database;\r\n    \r\n    struct Music{\r\n        string name;\r\n        string singer;\r\n        uint price;\r\n        uint saleCount;\r\n    }\r\n    \r\n    Music[] private music;\r\n    \r\n    function createMusic(string name, string singer, uint price) onlyOwner public returns(bool){\r\n        for(uint i = 0;i < music.length;i++){\r\n            if(bytes(music[i].name).length==bytes(name).length){\r\n                if(keccak256(bytes(music[i].name))==keccak256(bytes(name))){\r\n                    return false;\r\n                }\r\n            }\r\n        }\r\n        music.push(Music(name, singer, price, 0));\r\n        database[owner].push(name);\r\n        musicNumber++;\r\n        return true;\r\n    }\r\n    \r\n    function queryMusicPrice(string name) public constant returns(string,uint) {\r\n        for (uint i = 0;i < music.length;i++){\r\n            if(bytes(music[i].name).length==bytes(name).length){\r\n                if(keccak256(bytes(music[i].name))==keccak256(bytes(name))){\r\n                    return (\"价格为：\", music[i].price);\r\n                }\r\n            }\r\n        }\r\n        return (\"此歌曲不存在\",0);\r\n    }\r\n    \r\n\r\n    function buyMusic(string song) payable public returns(string, uint) {\r\n        require(msg.sender != owner, \"版权拥有者无需购买\");\r\n        require(!isBounght(song), \"您已购买过此曲，无需重复消费\");\r\n        for(uint i = 0;i < music.length;i++){\r\n            if(bytes(music[i].name).length==bytes(song).length){\r\n                if(keccak256(bytes(music[i].name))==keccak256(bytes(song))){\r\n                    require(msg.value >= music[i].price, \"金额不足\");\r\n                    msg.sender.transfer(msg.value-music[i].price);\r\n                    music[i].saleCount++;\r\n                    database[msg.sender].push(music[i].name);\r\n                    return (\"购买成功，返还余额：\", msg.value-music[i].price);\r\n                }\r\n            }\r\n        }\r\n        msg.sender.transfer(msg.value);\r\n        return (\"购买失败，此曲不存在，返还余额：\", 0);\r\n    }\r\n    modifier onlyOwner() {\r\n        require(\r\n            msg.sender == owner,\r\n            \"只有版权拥有者才可操作此项\"\r\n        );\r\n        _;\r\n    }\r\n    \r\n    function withdraw() public onlyOwner {\r\n        owner.transfer(address(this).balance);\r\n    }\r\n    \r\n    function getBalance() public constant onlyOwner returns(uint) {\r\n        return address(this).balance;\r\n    }\r\n    \r\n    function isBounght(string name) payable public returns(bool){\r\n        for(uint i = 0;i < database[msg.sender].length;i++){\r\n            if(bytes(database[msg.sender][i]).length==bytes(name).length){\r\n                if(keccak256(bytes(database[msg.sender][i]))==keccak256(bytes(name))){\r\n                    return true;\r\n                }\r\n            }\r\n        }\r\n        return false;\r\n    }\r\n    \r\n    function getMusicCount() payable public returns(uint){\r\n        return database[msg.sender].length;\r\n    }\r\n    \r\n    function getMusicList() payable public returns(string[]){\r\n        string[] memory list = new string[](database[owner].length+1);\r\n        for(uint i = 0; i < database[owner].length;i++){\r\n            list[i] = database[owner][i];\r\n        }\r\n        return list;\r\n    }\r\n    function getMyMusic() payable public returns(string[]){\r\n        string[] memory list = new string[](database[msg.sender].length+1);\r\n        for(uint i = 0; i < database[msg.sender].length;i++){\r\n            list[i] = database[msg.sender][i];\r\n        }\r\n        return list;\r\n    }\r\n}",
  "sourcePath": "C:/Users/Lenovo/Desktop/DAPP/MusicPlatform/contracts/Musician.sol",
  "compiler": {
    "name": "solc",
    "version": "0.4.24+commit.e67f0147.Emscripten.clang"
  },
  "schemaVersion": "3.0.0",
  "updatedAt": "2018-12-26T12:07:02.080Z",
  "devdoc": {
    "methods": {}
  },
  "userdoc": {
    "methods": {}
  }
}